:040000000DEF00F010
:04000800F1EF43F0E1
:10001800FF00D1EF41F0600073F3D9FF600077F380
:10002800DAFFDE6ADD6ADAC060F0DBC061F001EC9D
:1000380034F060C020F161C021F1010121BF29EF36
:1000480000F027EF00F02CEF00F00B0E68EF07F040
:10005800D8902035D96E2135DA6EC20ED926010E18
:10006800DA226F0078FF38F16F0074FF39F13851E8
:100078003911D8A442EF00F044EF00F047EF00F048
:100088000C0E68EF07F0600073F3D9FF600077F398
:10009800DAFF6000E3F4DEFF6000E7F4DDFF000153
:1000A800DE916000E3F4D9FF6000E7F4DAFFDF5087
:1000B800D8B461EF00F063EF00F08DEF00F00101BC
:1000C80020EE01F03851D9263951DA22DF5060ECA0
:1000D80041F00101286F28B174EF00F076EF00F0CD
:1000E8008DEF00F00001DE51D8B47DEF00F07FEF16
:1000F80000F08AEF00F0010128A585EF00F087EFF6
:1001080000F08AEF00F00A0E68EF07F0000E68EFC3
:1001180007F06000E3F4D9FF6000E7F4DAFFDF6A74
:10012800010120EE01F03851D9263951DA22600058
:1001380083F4DFFF20EE01F03851D9263951DA2255
:10014800DF5070EC44F00101286F28A1AEEF00F0F9
:10015800B0EF00F0B3EF00F0030E68EF07F0000116
:10016800DE51D8B4BAEF00F0BCEF00F0C6EF00F0F3
:10017800010128A5C2EF00F0C4EF00F0C6EF00F0BF
:1001880087EF00F0000E0101316F000E326F000E94
:10019800336F000E346F38C1D3F039C1D4F031C198
:1001A800D5F032C1D6F033C1D7F034C1D8F072ECF3
:1001B80035F00101376F020E3719D8B4E6EF00F0B9
:1001C800E8EF00F0EAEF00F0D7EF01F0000E366F2D
:1001D800000E356F365109E1040E355DD8A0F7EFF2
:1001E80000F0F9EF00F0FBEF00F06BEF01F035C124
:1001F800DFF036C1E0F00001DF3BE03BF00EE01736
:10020800DF510F0BE013F00EDF17DF510101382526
:100218000001E16FE051010139210001E26FF10EA7
:10022800E12501011A6F010E0001E22101011B6F96
:1002380020EE04F01A51D9261B51DA22DF50D8A437
:1002480028EF01F02AEF01F034EF01F0000E106FF3
:10025800000E116F000E126F000E136F47EF01F0C2
:10026800080E1A250001606F000E01011B21000114
:10027800616F91EC3EF060C010F161C011F162C095
:1002880012F163C013F1000E0001DF6F010EE06F81
:10029800D89001013535D96E3635DA6ED890D93611
:1002A800DA360001DF51D926E051DA22600043F442
:1002B800DEFF600047F4DEFF60004BF4DEFF600005
:1002C8004FF4DEFF0101354B362BEEEF00F0000E48
:1002D800366F000E356F35513611D8B476EF01F010
:1002E80078EF01F07BEF01F03507D8A03607000E54
:1002F8000001DF6F010EE06FD89001013535D96E2E
:100308003635DA6ED890D936DA360001DF51D9267B
:10031800E051DA226F0078FF31F16F0078FF32F197
:100328006F0078FF33F16F0078FF34F1010131512C
:10033800321133113411D8A4A4EF01F0A6EF01F063
:10034800ACEF01F0000E156F030E146FC0EF01F053
:1003580038C1D3F039C1D4F031C1D5F032C1D6F0AB
:1003680033C1D7F034C1D8F072EC35F00001DF6F3B
:10037800DF510101146F156B14C137F1010E376598
:10038800C8EF01F0CAEF01F0D7EF01F0354B362B7B
:10039800365109E1040E355DD8A0D5EF01F0D7EF4D
:1003A80001F07BEF01F0040E3719D8A4DEEF01F05D
:1003B800E0EF01F0E3EF01F0010E68EF07F0010E46
:1003C8003765E9EF01F0EBEF01F0EEEF01F00D0E0C
:1003D80068EF07F03E0E38250001606F000E01013E
:1003E80039210001616FB5EC44F0020E000161197A
:1003F8006011D8B402EF02F004EF02F006EF02F049
:10040800EBEF01F0490E010138250001606F000E85
:10041800010139210001616FB5EC44F0000160C0B1
:100428002DF161C02EF101012F6B306B2D512E1172
:100438002F113011D8A423EF02F025EF02F038EF86
:1004480002F0570E38250001606F000E01013921B6
:100458000001616F91EC3EF060C02DF161C02EF19A
:1004680062C02FF163C030F1010120EE1BF038515A
:10047800D9263951DA226000B7F4DEFF6000BBF4F8
:10048800DEFF6000BFF4DEFF6000C3F4DEFF20EE95
:1004980043F03851D9263951DA2210EE02F038519A
:1004A800E1263951E2226F007FFFE7FF20EE02F0DC
:1004B8003851D9263951DA22DE04D8B466EF02F071
:1004C80068EF02F079EF02F020EE02F03851D926F9
:1004D8003951DA22020EDE18D8B475EF02F077EF40
:1004E80002F079EF02F0EBEF01F02DC160F02EC1C0
:1004F80061F02FC162F030C163F020EE02F0385194
:10050800D9263951DA22DF500001DF6FDF51646FDD
:10051800656B666B676B07EC42F060C02DF161C0DC
:100528002EF162C02FF163C030F1010120EE40F0DE
:100538003851D9263951DA22DF500001DF6FE06BDC
:10054800010120EE09F03851D9263951DA2260002C
:100558007FF3DEFF600083F3DDFF20EE09F0385102
:10056800D9263951DA22DE50DE10D8B4BEEF02F0B7
:10057800C0EF02F0EBEF01F020EE09F03851D92678
:100588003951DA226F0078FFDFF06F0074FFE0F076
:1005980020EE09F03851D9263951DA226F0078FF58
:1005A800E1F06F0074FFE2F0FF0E0001E125E36F58
:1005B800FF0EE221E46FDF51E315E56FE051E4152A
:1005C800E66FE551E611D8B4ECEF02F0EEEF02F079
:1005D800F0EF02F0EBEF01F0440E010138250001C5
:1005E800606F000E010139210001616FB5EC44F024
:1005F800010120EE07F03851D9263951DA220001DD
:10060800600083F1DEFF600087F1DDFF010120EE6D
:1006180007F03851D9263951DA226F0078FFDFF018
:100628006F0074FFE0F00F0E0001DF17000EE017F7
:10063800DF51E011D8B423EF03F025EF03F027EFE3
:1006480003F0EBEF01F0460E010138250001606F61
:10065800000E010139210001616FB5EC44F0000181
:1006680060C024F161C025F10101266B276B24517C
:10067800251126112711D8A444EF03F046EF03F003
:1006880059EF03F0530E38250001606F000E010189
:1006980039210001616F91EC3EF060C024F161C026
:1006A80025F162C026F163C027F1410E010138250A
:1006B8000001606F000E010139210001616FB5EC86
:1006C80044F060C022F161C023F1010122512311DD
:1006D800D8A471EF03F073EF03F075EF03F0EBEFBD
:1006E80001F020EE07F03851D9263951DA226F008F
:1006F80078FFDFF06F0074FFE0F0040E0001E16F97
:10070800D890E033DF33E12F84EF03F00101225169
:100718000001DF25E26F010123510001E021E36FB1
:10072800E46BD8B0E42BE56B01012D510001E22503
:1007380001011C6F2E510001E32101011D6F2F5192
:100748000001E42101011E6F30510001E521010182
:100758001F6F1C51245D1D5125591E5126591F51CB
:100768002759D8B0BAEF03F0BCEF03F0BEEF03F09F
:10077800EBEF01F01C51245D0001606F01011D5178
:1007880025590001616F01011E5126590001626F50
:1007980001011F5127590001636F010120EE09F083
:1007A8003851D9263951DA226F0078FFDFF06F000F
:1007B80074FFE0F0DFC064F0E0C065F00001666B34
:1007C800676B43EC3FF060C029F161C02AF162C059
:1007D8002BF163C02CF1010129512A112B112C1185
:1007E800D8A4F9EF03F0FBEF03F0FDEF03F0EBEF14
:1007F80001F0000E376FF60E295DFF0E2A59FF0E25
:100808002B590F0E2C59D8B00CEF04F00EEF04F052
:1008180010EF04F0030E376F2C512B1109E1F60E7F
:10082800295DFF0E2A59D8B01CEF04F01EEF04F022
:1008380020EF04F0020E376F2C512B1109E1F60E50
:10084800295D0F0E2A59D8B02CEF04F02EEF04F0D2
:1008580030EF04F0010E376F3751D8A436EF04F0AB
:1008680038EF04F03AEF04F0EBEF01F0020E29251F
:100878000001DF6F000E01012A210001E06F000E68
:1008880001012B210001E16F000E01012C21000163
:10089800E26F010120EE17F03851D9263951DA22DA
:1008A80060007FF3DEFF600083F3DEFF600087F304
:1008B800DEFF60008BF3DEFF20EE1FF03851D926F3
:1008C8003951DA226000C7F4DEFF6000CBF4DEFFA6
:1008D8006000CFF4DEFF6000D3F4DEFF2251312543
:1008E8000001DF6F0101235132210001E06F000E8A
:1008F800010133210001E16F000E010134210001E3
:10090800E26F010120EE23F03851D9263951DA225D
:1009180060007FF3DEFF600083F3DEFF600087F393
:10092800DEFF60008BF3DEFF1C5131250001DF6F15
:1009380001011D5132210001E06F01011E513321D7
:100948000001E16F01011F5134210001E26F010133
:1009580020EE2BF03851D9263951DA2260007FF386
:10096800DEFF600083F3DEFF600087F3DEFF6000D8
:100978008BF3DEFF030E3719D8A4C5EF04F0C7EFD9
:1009880004F036EF05F05D0E38250001606F000EAB
:10099800010139210001616FB5EC44F0000160519B
:1009A8006111D8B4DAEF04F0DCEF04F0DEEF04F004
:1009B800EBEF01F0010120EE07F03851D92639514B
:1009C800DA22DE50DE10D8B4ECEF04F0EEEF04F0DB
:1009D800F0EF04F0EBEF01F05F0E38250001606FD7
:1009E800000E010139210001616F91EC3EF0010117
:1009F80020EE27F03851D9263951DA22000160005B
:100A080083F1DEFF600087F1DEFF60008BF1DEFF1F
:100A180060008FF1DEFF010120EE17F03851D92672
:100A28003951DA226F0078FFDFF06F0078FFE0F0CD
:100A38006F0078FFE1F06F0078FFE2F0020ED890C7
:100A48000001DF37E037E137E237E82E23EF05F022
:100A5800DFC016F1E0C017F1E1C018F1E2C019F1EA
:100A680003EF06F020EE07F03851D9263951DA2283
:100A7800DE50DE10D8A443EF05F045EF05F047EF50
:100A880005F0EBEF01F020EE23F03851D92639516B
:100A9800DA226F0078FFDFF06F0078FFE0F06F0078
:100AA80078FFE1F06F0078FFE2F02D510001DF25BB
:100AB800E36F01012E510001E021E46F01012F5184
:100AC8000001E121E56F010130510001E221E66FEB
:100AD800010120EE27F03851D9263951DA22600079
:100AE8008FF3DEFF600093F3DEFF600097F3DEFF15
:100AF80060009BF3DEFF020E3719D8B486EF05F0CD
:100B080088EF05F0E0EF05F020EE17F03851D92610
:100B18003951DA226F0078FFDFF06F0078FFE0F0DC
:100B28006F0078FFE1F06F0078FFE2F0010E00013E
:100B3800DF15E36F000EE015E46F000EE115E56FB9
:100B4800000EE215E66F010120EE17F03851D926A4
:100B58003951DA226F0078FF60F06F0078FF61F09A
:100B68006F0078FF62F06F0078FF63F0030E0001FA
:100B7800646F000E656F000E666F000E676F07ECFE
:100B880042F00001D8906333623361336033E3513C
:100B980060250101166F0001E45161210101176F01
:100BA8000001E55162210101186F0001E65163213E
:100BB8000101196F03EF06F020EE17F03851D9261E
:100BC8003951DA226F0078FFDFF06F0078FFE0F02C
:100BD8006F0078FFE1F06F0078FFE2F0D890000135
:100BE800DF350101166F0001E0350101176F0001C3
:100BF800E1350101186F0001E2350101196FFF0E9F
:100C0800010116250001DF6F010E01011721000106
:100C1800E06F000E010118210001E16F000E0101D3
:100C280019210001E26F0A0E1FEF06F0D890E23397
:100C3800E133E033DF33E82E1AEF06F0010120EE4E
:100C48001BF03851D9263951DA220001DF51DE5C18
:100C5800E051DE58E151DE58E251DE58D8B037EFA6
:100C680006F039EF06F03BEF06F0EBEF01F001017B
:100C780020EE0FF03851D9263951DA22FF0EDE6EF8
:100C8800FF0EDE6EFF0EDE6EFF0EDD6EDD52DD52F4
:100C980010EE0BF03851E1263951E2226F007BFF4C
:100CA800E6FF6F007BFFE6FF6F007BFFE6FF6F004C
:100CB8007BFFE6FF20EE04F03851D9263951DA22BD
:100CC800800EDF6E030E3719D8A46DEF06F06FEFB4
:100CD80006F044EF07F0630E38250001606F000E40
:100CE800010139210001616FB5EC44F00001600594
:100CF8006111D8A482EF06F084EF06F044EF07F004
:100D080038C1C8F039C1C9F0010E0101312500010F
:100D1800CA6F000E010132210001CB6F000E0101E4
:100D280033210001CC6F000E010134210001CD6F89
:100D3800BFEC3DF00009D8A4A4EF06F0A6EF06F03A
:100D480044EF07F0010120EE04F03851D92639515B
:100D5800DA22DF6A310E38250001606F020E0101C8
:100D680039210001616FB5EC44F0550E000160199E
:100D780007E1AA0E6119D8A4C4EF06F0C6EF06F081
:100D880044EF07F0330E010138250001606F000EB3
:100D9800010139210001616F91EC3EF0520E000112
:100DA80060190DE1520E61190AE1610E621907E13D
:100DB800410E6319D8A4E3EF06F0E5EF06F044EF1F
:100DC80007F0170E010138250001606F020E0101BE
:100DD80039210001616F91EC3EF0720E000160193B
:100DE8000DE1720E61190AE1410E621907E1610E07
:100DF8006319D8A402EF07F004EF07F044EF07F0F7
:100E08001B0E010138250001606F020E0101392116
:100E18000001616F91EC3EF0010120EE0FF03851B6
:100E2800D9263951DA220001600083F1DEFF600023
:100E380087F1DEFF60008BF1DEFF60008FF1DEFFDF
:100E48001F0E010138250001606F020E01013921D2
:100E58000001616F91EC3EF0010120EE0BF038517A
:100E6800D9263951DA220001600083F1DEFF6000E3
:100E780087F1DEFF60008BF1DEFF60008FF1DEFF9F
:100E88006000E3F4D9FF6000E7F4DAFF6000DFF404
:100E9800DFFF0101C04BC12B20EE05F03851D926E8
:100EA8003951DA22600003F7DEFF600007F7DDFF43
:100EB80020EE13F03851D9263951DA22DE6ADE6A7B
:100EC800DE6ADD6A8AEF00F0120019C12FF11AC13B
:100ED80030F1600077F4D9FF60007BF4DAFFDE6A56
:100EE800DD6A17C162F018C163F0400E0001646F3B
:100EF800010E656F43EC39F00101316F3151D8A40F
:100F080088EF07F08AEF07F09AEF07F020EE0FF06E
:100F18001751D9261851DA22DF50316F3151D8B420
:100F280098EF07F09AEF07F09DEF07F0315191EF36
:100F38000BF020EE0EF01751D9261851DA22DFB245
:100F4800A8EF07F0AAEF07F0ADEF07F0070E91EF53
:100F58000BF020EE10F01751D9261851DA2210EEB6
:100F680010F01751E1261851E2226F0098FF23F183
:100F78006F0098FF24F16F0098FF25F16F0098FF2C
:100F880026F11B512325276F1C512421286F000EA1
:100F98002521296F000E26212A6FDE50275DDE509D
:100FA8002859DE502959DE502A59D8B0DEEF07F00B
:100FB800E0EF07F07FEF0BF020EE10F01751D92685
:100FC8001851DA226F0078FF1FF16F0074FF20F1CB
:100FD8001F1D1B6F201D1C6F7FEF0BF020EE10F004
:100FE8001751D9261851DA22FF0EDE141F6F010E91
:100FF800DE14206F000EDE14216F000EDE14226F47
:101008001F51201121112211D8A40DEF08F00FEF64
:1010180008F0B0EF0AF020EE10F01751D926185159
:10102800DA226F0078FF1FF16F0078FF20F16F0060
:1010380078FF21F16F0078FF22F10A0E29EF08F0FE
:10104800D8902233213320331F33E82E24EF08F0C1
:1010580020EE09F04051D9264151DA226F0078FF7D
:1010680023F16F0074FF24F1FF0E2325256FFF0E77
:101078002421266F1F512515326F20512615336FF5
:1010880032513311D8A44BEF08F04DEF08F026EF9A
:1010980009F020EE10F01751D9261851DA22DE5047
:1010A800DE10DE10DE10D8A45CEF08F05EEF08F06A
:1010B80094EF08F020EE06F01751D9261851DA22DD
:1010C8006F0078FF3AF16F0078FF3BF16F0078FF0F
:1010D8003CF16F0078FF3DF13A513B113C113D1155
:1010E800D8A479EF08F07BEF08F0B4EF08F017C147
:1010F800F4F018C1F5F0000E0001F66F000EF76F5E
:10110800000EF86F000EF96FFAEC16F0F4C03AF121
:10111800F5C03BF1F6C03CF1F7C03DF1B4EF08F083
:1011280017C1F4F018C1F5F020EE14F01751D926C4
:101138001851DA226F0078FFF6F06F0078FFF7F0A9
:101148006F0078FFF8F06F0078FFF9F0FAEC16F00E
:10115800F4C03AF1F5C03BF1F6C03CF1F7C03DF1FF
:1011680001013A513B113C113D11D8A4BEEF08F0E2
:10117800C0EF08F0C2EF08F088EF0BF03A053B111A
:101188003C113D11D8A4CBEF08F0CDEF08F0D8EF13
:1011980008F020EE0FF01751D9261851DA22020E66
:1011A800DF6E020E91EF0BF03A290AE13B2908E1C4
:1011B8003C2906E13D29D8A4E4EF08F0E6EF08F061
:1011C800F1EF08F020EE0FF01751D9261851DA2266
:1011D800010EDF6E010E91EF0BF020EE14F01751A7
:1011E800D9261851DA226000EBF4DEFF6000EFF434
:1011F800DEFF6000F3F4DEFF6000F7F4DEFF20EEB0
:1012080006F01751D9261851DA22DE50DE10DE100A
:10121800DE10D8A412EF09F014EF09F026EF09F058
:1012280020EE06F01751D9261851DA226000EBF4A7
:10123800DEFF6000EFF4DEFF6000F3F4DEFF600025
:10124800F7F4DEFF20EE0EF01751D9261851DA22F6
:10125800DFAE31EF09F033EF09F07AEF09F0220E33
:1012680017250001AB6F000E010118210001AC6FBA
:10127800010120EE18F01751D9261851DA226F0013
:1012880078FFADF06F0078FFAEF06F0078FFAFF039
:101298006F0078FFB0F0000E0001B26F010EB16F61
:1012A800010120EE01F04051D9264151DA22DF50E8
:1012B8003DEC42F00009D8B464EF09F066EF09F09C
:1012C80071EF09F0010120EE0FF01751D9261851DE
:1012D800DA22010EDF6EEEEF08F0010120EE0EF0CB
:1012E8001751D9261851DA227F0EDF1640C16CF04B
:1012F80041C16DF020EE14F01751D9261851DA22A9
:101308006F0078FF6EF06F0078FF6FF06F0078FF66
:1013180070F06F0078FF71F051EC3DF06CC036F161
:101328006DC037F16EC038F16FC039F10101365127
:10133800371138113911D8A4A4EF09F0A6EF09F034
:10134800B0EF09F020EE0FF01751D9261851DA2224
:10135800020EDF6ED5EF08F03251362733513723AE
:10136800000E3823000E39231BC11FF11CC120F1C8
:10137800090E216FD89020331F33212FBEEF09F0BB
:101388001FC134F120C135F134513511D8B4CFEF34
:1013980009F0D1EF09F038EF0AF0345132251F6F08
:1013A80035513321206F20EE09F04051D9264151A3
:1013B800DA221F51DE5C2051DE58D8B0E6EF09F082
:1013C800E8EF09F0FAEF09F020EE09F04051D926CC
:1013D8004151DA226F0078FF1FF16F0074FF20F18E
:1013E80032511F5D346F33512059356F2FC1ABF027
:1013F80030C1ACF036C1ADF037C1AEF038C1AFF096
:1014080039C1B0F034C1B1F035C1B2F020EE01F00D
:101418004051D9264151DA22DF503DEC42F0000913
:10142800D8B419EF0AF01BEF0AF026EF0AF0010111
:1014380020EE0FF01751D9261851DA22010EDF6E6F
:10144800EEEF08F034C11FF135C120F1090ED89034
:1014580001011F372037E82E2BEF0AF01FC13EF19C
:1014680020C13FF10DEF0BF020EE18F01751D926EF
:101478001851DA223651DE180FE13751DE180CE127
:101488003851DE1809E13951DE18D8B44EEF0AF0A8
:1014980050EF0AF09DEF0AF020EE0AF01751D92616
:1014A8001851DA2210EE10F01751E1261851E222F5
:1014B800DE50E65CDE50E658DE50E658DE50E65870
:1014C800D8B069EF0AF06BEF0AF09DEF0AF0220E30
:1014D80017250001A86F000E010118210001A96F4E
:1014E80036C1AAF037C1ABF038C1ACF039C1ADF0A4
:1014F800000EAF6F010EAE6F010120EE01F04051FA
:10150800D9264151DA22DF5071EC42F00009D8B4F3
:1015180090EF0AF092EF0AF09DEF0AF0010120EE39
:101528000FF01751D9261851DA22010EDF6EEEEFAF
:1015380008F0010120EE18F01751D9261851DA22C7
:101548006000DBF4DEFF6000DFF4DEFF6000E3F440
:10155800DEFF6000E7F4DEFF20EE10F01751D92619
:101568001851DA226F0078FF1FF16F0074FF20F125
:10157800FF0E1F15216F010E2015226F2151000843
:101588003E6F2251D8A0E82A02083F6F3E511B5DEA
:101598003F511C59D8B0D3EF0AF0D5EF0AF0D9EF74
:1015A8000AF01BC13EF11CC13FF120EE10F01751AB
:1015B800D9261851DA226F0078FF1FF16F0074FFE7
:1015C80020F1FF0E1F15216F010E2015226F2151EA
:1015D8001725236F22511821246F220E232500017D
:1015E800606F000E010124210001616F2FC162F0BC
:1015F80030C163F03EC164F03FC165F0ABEC40F030
:10160800010120EE0EF01751D9261851DA22000EEA
:10161800DB8E3E511B5F3F511C5B600077F4D9FFA6
:1016280060007BF4DAFF3E51DE263F51DD223E5159
:101638002F273F51302320EE10F01751D92618518B
:10164800DA223E51DE263F51DE22000EDE22DE2265
:1016580020EE10F01751D9261851DA2210EE0AF0B0
:101668001751E1261851E222DE50E65CDE50E658BA
:10167800DE50E658DE50E658D8A045EF0BF047EFAD
:101688000BF05BEF0BF020EE0AF01751D92618513A
:10169800DA226F0078FF2BF16F0078FF2CF16F00D2
:1016A80078FF2DF16F0078FF2EF16DEF0BF020EE33
:1016B80010F01751D9261851DA226F0078FF2BF154
:1016C8006F0078FF2CF16F0078FF2DF16F0078FF25
:1016D8002EF120EE0AF01751D9261851DA226000AF
:1016E800AFF4DEFF6000B3F4DEFF6000B7F4DEFFA6
:1016F8006000BBF4DEFF1B511C11D8A486EF0BF071
:1017080088EF0BF0F2EF07F020EE0EF01751D92614
:101718001851DA22000EDB8C000E1200000E526EF9
:10172800000E4F6E000E536E000E546E000E556E76
:10173800000E566E000E576EBA8AAF0EF66EFF0E8A
:10174800F76EF86A09006F00D4FF82F009006F0095
:10175800D4FF83F002D8BBEF0BF00500FA6E00014E
:101768008251FD6E8351FE6EFF6AFA501200000925
:10177800D8A4C1EF0BF0C3EF0BF0C6EF0BF0000ECF
:101788009FEF0FF01E0E9AEC41F0000E0001B36FB0
:10179800640EB26FBA8A9D0EF66EFF0EF76EF86A87
:1017A80009006F00D4FF82F009006F00D4FF83F0B6
:1017B80002D8E9EF0BF00500FA6E8251FD6E8351F5
:1017C800FE6EFF6AFA50FF0E1200BA9A0001B207C5
:1017D800D8A0B307000E6B6F000E6C6F000E6D6F14
:1017E800000E6E6F000E82EC1CF020EEADF0040EC1
:1017F8006F00AFFFDBFFE806FBE20001AD05D8B4E0
:1018080008EF0CF00AEF0CF013EF0CF0B251B31123
:10181800D8A411EF0CF013EF0CF0CEEF0BF0B2518F
:10182800B311D8A41AEF0CF01CEF0CF080EF0CF0F9
:10183800BA8A9D0EF66EFF0EF76EF86A09006F0001
:10184800D4FF82F009006F00D4FF83F002D837EF8D
:101858000CF00500FA6E8251FD6E8351FE6EFF6A30
:10186800FA50FF0E1200BA9A000E00016B6F000EBC
:101878006C6F000E6D6F000E6E6F050E82EC1CF023
:10188800000E00016B6F000E6C6F000E6D6F000E86
:101898006E6F000E82EC1CF020EEADF0040E6F00AF
:1018A800AFFFDBFFE806FBE20001AD05D8B45FEF50
:1018B8000CF061EF0CF080EF0CF0020E4F6EBA8A5C
:1018C800990EF66EFF0EF76E000EF86E09006F00A7
:1018D800D4FF82F009006F00D4FF83F002D87EEFB6
:1018E8000CF00500FA6E8251FD6E8351FE6EFF6AA0
:1018F800FA501200C3EF0BF0AA0E6B6F010E6C6F5B
:10190800000E6D6F000E6E6F020E82EC1CF020EE62
:10191800ADF0040E6F00AFFFDBFFE806FBE220EE40
:10192800AEF0FF0EDE140001826F0F0EDE14836F1F
:10193800000EDE14846F000EDE14856FAA0E821965
:1019480008E1830584118511D8A4ADEF0CF0AFEF41
:101958000CF02BEF0DF0ADB5B4EF0CF0B6EF0CF0CA
:101968002BEF0DF0000E6B6F000E6C6F000E6D6F9D
:10197800000E6E6F100E82EC1CF0000E0001B36FAB
:10198800000EB26F000E6B6F000E6C6F000E6D6F65
:10199800000E6E6F0F0E82EC1CF0000E00016B6FD4
:1019A800000E6C6F000E6D6F400E6E6F120E82ECA3
:1019B8001CF020EEADF0040E6F00AFFFDBFFE80671
:1019C800FBE20001AD51D8A4ECEF0CF0EEEF0CF007
:1019D800F0EF0CF0FCEF0CF0B24BB32BB22906E1A0
:1019E800B329D8A4FAEF0CF0FCEF0CF0C6EF0CF01A
:1019F800B22906E1B329D8A404EF0DF006EF0DF0E3
:101A080008EF0DF0020E4F6E000E6B6F000E6C6F3C
:101A1800000E6D6F000E6E6F100E82EC1CF020EE43
:101A2800ADF0040E6F00AFFFDBFFE806FBE200013C
:101A3800B1AD21EF0DF023EF0DF027EF0DF0010E02
:101A4800576E69EF0DF0000E576E69EF0DF0010E3D
:101A58009AEC41F0BA9A000E576E1F0E0001B36F50
:101A6800B269000E6B6F000E6C6F000E6D6F000E8A
:101A78006E6F010E82EC1CF020EEADF0040E6F00CC
:101A8800AFFFDBFFE806FBE20001B207D8A0B3070F
:101A9800AD51D8B452EF0DF054EF0DF05DEF0DF0ED
:101AA800B251B311D8A45BEF0DF05DEF0DF035EF37
:101AB8000DF0B251B311D8A464EF0DF066EF0DF03C
:101AC80069EF0DF0020E4F6EBA8ABA8A990EF66E59
:101AD800FF0EF76E000EF86E09006F00D4FF82F05B
:101AE80009006F00D4FF83F002D884EF0DF00500E1
:101AF800FA6E8251FD6E8351FE6EFF6AFA50120033
:101B08009B0EF66EFF0EF76EF86A09006F00D4FFA1
:101B180082F009006F00D4FF83F002D89EEF0DF029
:101B28000500FA6E00018251FD6E8351FE6EFF6A58
:101B3800FA5012000009D8A4A4EF0DF0A6EF0DF09A
:101B4800A8EF0DF0C3EF0BF0BA9A000E0001B36FC7
:101B5800140EB26F000E6B6F000E6C6F000E6D6F7F
:101B6800000E6E6F030E82EC1CF020EEADF0040E3A
:101B78006F00AFFFDBFFE806FBE20001B207D8A069
:101B8800B307AD51D8B4CBEF0DF0CDEF0DF0D6EFD4
:101B98000DF0B251B311D8A4D4EF0DF0D6EF0DF07B
:101BA800AEEF0DF0B251B311D8A4DDEF0DF0DFEFB9
:101BB8000DF0FEEF0DF0020E4F6EBA8A990EF66E1A
:101BC800FF0EF76E000EF86E09006F00D4FF82F06A
:101BD80009006F00D4FF83F002D8FCEF0DF0050078
:101BE800FA6E8251FD6E8351FE6EFF6AFA50120042
:101BF800C3EF0BF0000EA66F000EA86FA6518D0F55
:101C0800D96EDA6A9D0EF66EFF0EF76EF86A090055
:101C18006F00D4FF82F009006F00D4FF83F002D870
:101C280020EF0EF00500FA6E8251FD6E8351FE6EB4
:101C3800FF6AFA50FF0E1200DF6E0001A62BA851B2
:101C4800D8A429EF0EF02BEF0EF036EF0EF0FE0EB3
:101C58008D19D8A432EF0EF034EF0EF036EF0EF0F7
:101C6800000EA66FA82B130EA8653DEF0EF03FEFF0
:101C78000EF002EF0EF0020E516E000E506E8DC087
:101C880082F0C00E8217D8B44CEF0EF04EEF0EF073
:101C980094EF0EF09551836F826B94C084F03F0EE1
:101CA800841784C085F0866B876B886B86C088F044
:101CB80085C087F0866B856B82518511896F83514A
:101CC80086118A6F000E87118B6F000E88118C6F3A
:101CD80096518911A96F8A51AA6F8B51AB6F8C519C
:101CE800AC6FA9C082F0AAC083F0ABC084F0ACC0CE
:101CF80085F00A0ED8908237833784378537E82EE7
:101D08007EEF0EF0FF0E8225536E030E8321546E74
:101D1800000E8421556E000E8521566E44EF0FF09B
:101D28009451836F826B93C084F0856B866B876B4D
:101D380085C087F084C086F0856B846B82518411DE
:101D4800886F83518511896F000E86118A6F000E86
:101D580087118B6F95518811A96F8951AA6F8A5184
:101D6800AB6F8B51AC6FC00EA917FF0EAA17030EED
:101D7800AB17000EAC17A9C082F0AAC083F0ABC0A5
:101D880084F0ACC085F0070ECFEF0EF0D890853305
:101D9800843383338233E82ECAEF0EF082C0A9F071
:101DA80083C0AAF084C0ABF085C0ACF096C082F0C6
:101DB800030E8217836B97AF01D0832B8331823553
:101DC800A56F92510F0BA76FA7C082F0F70E82275D
:101DD800010E836F822BF3EF0EF0D8908337822F9A
:101DE800F1EF0EF000018351A76F010EA925606F76
:101DF800000EAA21616F000EAB21626F000EAC21AC
:101E0800636FA5C082F0020E8227010E836F000E59
:101E1800846F822B13EF0FF0D89083378437822F8B
:101E280010EF0FF083C064F084C065F00001666BAA
:101E3800676B07EC42F060C0A1F061C0A2F062C01D
:101E4800A3F063C0A4F0A1C060F0A2C061F0A3C079
:101E580062F0A4C063F00001A751646F656B666B04
:101E6800676B07EC42F0FF0E00016025536EFF0E12
:101E78006121546EFF0E6221556EFF0E6321566E6E
:101E8800000E6B6F000E6C6F000E6D6F000E6E6FA4
:101E9800110E82EC1CF050C06BF051C06CF00001C8
:101EA8006D6B6E6B070E82EC1CF0BA8A4F50D8A48B
:101EB80060EF0FF062EF0FF082EF0FF0010E526E3D
:101EC800990EF66EFF0EF76E000EF86E09006F00A1
:101ED800D4FF82F009006F00D4FF83F002D87FEFAF
:101EE8000FF00500FA6E00018251FD6E8351FE6EFF
:101EF800FF6AFA501200010E9FEF0FF0990EF66E6E
:101F0800FF0EF76E000EF86E09006F00D4FF82F026
:101F180009006F00D4FF83F002D89DEF0FF0050091
:101F2800FA6E00018251FD6E8351FE6EFF6AFA500F
:101F38001200C3EF0BF01200010141514211D8A465
:101F4800A8EF0FF0AAEF0FF0ADEF0FF0090E96EF24
:101F580013F03F0E4517430E0001DA6F010EDB6FD9
:101F6800660EDC6F010EDD6F45C1DEF00FEC00F090
:101F78000101686F6851D8A4C4EF0FF0C6EF0FF0E5
:101F880084EF13F066C169F167C16AF1690E336FB6
:101F9800010E346F43C135F144C136F1C9EC29F063
:101FA8000101686F6851D8A4DCEF0FF0DEEF0FF085
:101FB800E7EF0FF090AFE3EF0FF0E5EF0FF0E7EF8B
:101FC8000FF0060E686F45C146F11C0E4617D8B4CF
:101FD800F0EF0FF0F2EF0FF002EF11F06851D8B404
:101FE800F8EF0FF0FAEF0FF00EEF10F0040E68198B
:101FF800D8A401EF10F003EF10F00BEF10F0690E0A
:10200800396F010E3A6FE9EC3BF00101686F4587C3
:1020180026EF10F06DC146F1110E4617D8B417EF30
:1020280010F019EF10F01DEF10F0070E686F26EF93
:1020380010F045A522EF10F024EF10F026EF10F075
:10204800080E686F6851D8A42CEF10F02EEF10F02E
:1020580025EF11F045A733EF10F035EF10F025EF1D
:1020680011F066C167F067C168F083C169F084C187
:102078006AF0E2EC3FF067C05AF168C05BF169C0F2
:102088005CF16AC05DF10E0E010183250001606FED
:10209800000E010184210001616F000E626F000EC5
:1020A800636FF70E646F580E656F27EC40F00101FF
:1020B80020EE0BF08351D9268451DA22200EDF6EF0
:1020C80066C164F067C165F083C166F084C167F0DA
:1020D800000E0001686F000E696F000E6A6F000E37
:1020E8006B6F1CEC44F01C0E010183250001606F2E
:1020F800000E010184210001616F000E626F000E65
:10210800636F000E646F000E656F27EC40F00101ED
:1021180020EE03F06651D9266751DA22010EDF6EF0
:102128005A515B115C115D11D8B49DEF10F09FEF0F
:1021380010F025EF11F020EE2FF06651D9266751E7
:10214800DA226F0078FF4EF16F0078FF4FF16F00D1
:1021580078FF50F16F0078FF51F1690E0001F46FBC
:10216800010EF56F5AC1F6F05BC1F7F05CC1F8F0EB
:102178005DC1F9F0000EFA6F000EFB6F000EFC6FE8
:10218800000EFD6F23EC2BF00101686F6851D8A495
:10219800D0EF10F0D2EF10F025EF11F066C1C8F0C3
:1021A80067C1C9F04EC1CAF04FC1CBF050C1CCF0E5
:1021B80051C1CDF0BFEC3DF00101686FFF0E5A250B
:1021C800466FFF0E5B21476FFF0E5C21486FFF0EC5
:1021D8005D21496F20EE0BF06651D9266751DA224E
:1021E80060001BF5DEFF60001FF5DEFF600023F5D1
:1021F800DEFF600027F5DEFF25EF11F06851D8A457
:1022080008EF11F00AEF11F025EF11F06DA90FEFAB
:1022180011F011EF11F015EF11F0040E686F25EFB2
:1022280011F045A31AEF11F01CEF11F025EF11F092
:102238006DA121EF11F023EF11F025EF11F0070E3A
:10224800686F6851D8A42BEF11F02DEF11F059EFFA
:1022580011F045A732EF11F034EF11F035EF11F01E
:10226800458D20EE2FF06651D9266751DA2210EEFF
:102278001CF04151E1264251E2226F007BFFE6FF4C
:102288006F007BFFE6FF6F007BFFE6FF6F007BFFC1
:10229800E6FF20EE20F04151D9264251DA226000B3
:1022A8000FF6DEFF600013F6DDFF6851D8A45FEF7C
:1022B80011F061EF11F084EF13F066C167F067C1A8
:1022C80068F083C169F084C16AF0E2EC3FF0010173
:1022D80020EE06F04151D9264251DA220001600071
:1022E8009FF1DEFF6000A3F1DEFF6000A7F1DEFFD3
:1022F8006000ABF1DEFF1C0E010183250001606F59
:10230800000E010184210001616F91EC3EF0010192
:1023180020EE0AF04151D9264251DA22000160002C
:1023280083F1DEFF600087F1DEFF60008BF1DEFFE6
:1023380060008FF1DEFF600007F5D9FF60000BF544
:10234800DAFF60009BF5DEFF60009FF5DDFF01010D
:1023580020EE05F06651D9266751DA2210EE02F018
:102368004151E1264251E2226F007BFFE6FF6F00F8
:1023780077FFE5FF20EE0EF04151D9264251DA22CF
:10238800600017F5DFFF20EE0FF04151D9264251CA
:10239800DA22DF6A20EE18F04151D9264251DA22BA
:1023A800DE6ADE6ADE6ADD6A20EE10F04151D92667
:1023B8004251DA22DE6ADE6ADE6ADD6A220E4125D1
:1023C8000001606F000E010142210001616F000EE3
:1023D800636F000E626F020E656F000E646FF2ECA1
:1023E80044F0010145ABFBEF11F0FDEF11F084EF74
:1023F80013F020EE0AF04151D9264251DA22DE507C
:10240800DE10DE10DE10D8B40CEF12F00EEF12F072
:1024180084EF13F020EE0AF04151D9264251DA2216
:1024280010EE10F04151E1264251E2226F007BFF8D
:10243800E6FF6F007BFFE6FF6F007BFFE6FF6F00A4
:102448007BFFE6FF20EE09F06651D9266751DA22B4
:102458006F0078FF46F16F0074FF47F14651486FEF
:102468004751496F4A6B4B6B090ED890483749372B
:102478004A374B37E82E39EF12F048C156F149C1B7
:1024880057F14AC158F14BC159F120EE06F04151BC
:10249800D9264251DA226F0078FF62F16F0078FF87
:1024A80063F16F0078FF64F16F0078FF65F120EE4B
:1024B8000AF04151D9264251DA226F0078FF5EF1C5
:1024C8006F0078FF5FF16F0078FF60F16F0078FFB1
:1024D80061F1ADEF12F041C1D3F042C1D4F062C155
:1024E800D5F063C1D6F064C1D7F065C1D8F0BCECB3
:1024F80025F0D3C062F1D4C063F1D5C064F1D6C071
:1025080065F1010165516411631107E1020E625D15
:10251800D8B091EF12F093EF12F095EF12F0020E8F
:10252800686F62290AE1632908E1642906E16529DF
:10253800D8A4A1EF12F0A3EF12F0A5EF12F0010E4C
:10254800686F56515E5F57515F5B5851605B5951D8
:10255800615B6851D8A4B3EF12F0B5EF12F0C4EF85
:1025680012F05E51565D5F5157596051585961518B
:102578005959D8A0C2EF12F0C4EF12F06FEF12F061
:1025880020EE14F04151D9264251DA2260008BF531
:10259800DEFF60008FF5DEFF600093F5DEFF600070
:1025A80097F5DEFF6851D8A4DCEF12F0DEEF12F0E9
:1025B80084EF13F0FF0E5E15466F010E5F15476F2F
:1025C800000E6015486F000E6115496F465147119E
:1025D80048114911D8B4F3EF12F0F5EF12F084EF77
:1025E80013F066C16CF067C16DF062C16EF063C133
:1025F8006FF064C170F065C171F051EC3DF06CC0D2
:1026080052F16DC053F16EC054F16FC055F1010124
:102618005251531154115511D8A415EF13F017EF57
:1026280013F01BEF13F0020E686F84EF13F05EC116
:1026380046F15FC147F160C148F161C149F10A0E35
:102648002BEF13F0D8904933483347334633E82EFD
:1026580026EF13F0525146254A6F535147214B6FCD
:10266800545148214C6F555149214D6F20EE18F0B7
:102678004151D9264251DA2260002BF5DEFF600075
:102688002FF5DEFF600033F5DEFF600037F5DEFF73
:10269800220E41250001A86F000E01014221000110
:1026A800A96F010120EE18F04151D9264251DA22D2
:1026B8006F0078FFAAF06F0078FFABF06F0078FF2B
:1026C800ACF06F0078FFADF0000E0001AF6F010EA7
:1026D800AE6F010120EE01F06651D9266751DA226A
:1026E800DF5071EC42F00009D8B47DEF13F07FEFB2
:1026F80013F084EF13F0010E0101686F84EF13F0FB
:1027080001016851D8B48BEF13F08DEF13F095EFFA
:1027180013F0600007F5D9FF60000BF5DAFFDE6AF9
:10272800DD6A68511200D8EF16F0000EF9EF16F0C6
:10273800020E526E020E436E000E426E8251D96E28
:10274800DA6A10EE2DF00C0E6F006FFFE3FFE8065B
:10275800FBE23250311008E12F04020E3058D8B095
:10276800B8EF13F0BAEF13F0BEEF13F00A0E496E8C
:1027780013EF14F00B0E496E2FC083F030C084F0B5
:1027880031C085F032C086F00A0ED0EF13F0D89031
:102798008633853384338333E82ECBEF13F083C03D
:1027A8008CF084C08DF085C08EF086C08FF08C517F
:1027B8008D118E118F11D8A4E4EF13F0E6EF13F00A
:1027C800ECEF13F0010E8C27000E8D238E238F2340
:1027D800000E6B6F000E6C6F000E6D6F000E6E6F4B
:1027E8000F0E82EC1CF020EE87F0040E6F00AFFF96
:1027F800DBFFE806FBE200018751D8A406EF14F0DE
:1028080008EF14F013EF14F08CC06BF08DC06CF06F
:102818008EC06DF08FC06EF0130E82EC1CF0575016
:10282800D8A419EF14F01BEF14F024EF14F0090EDC
:10283800D8903536363637363836E82E1CEF14F051
:1028480035C06BF036C06CF037C06DF038C06EF034
:10285800495082EC1CF020EE87F0040E6F00AFFFA9
:10286800DBFFE806FBE200018751D8B43EEF14F025
:1028780040EF14F04AEF14F08251D96EDA6A0C0E68
:10288800D926FF0EDF6EFF0EF9EF16F08251D96ED2
:10289800DA6A0C0ED926020EDF6E020EF9EF16F078
:1028A800020E43184210D8A45CEF14F05EEF14F047
:1028B8009DEF14F00B0E4918D8A465EF14F067EFDC
:1028C80014F083EF14F09D0EF66EFF0EF76EF86AA3
:1028D80009006F00D4FF83F009006F00D4FF84F073
:1028E80002D881EF14F00500FA6E8351FD6E845111
:1028F800FE6EFF6AFA50FC0E12009DEF14F09D0E5A
:10290800F66EFF0EF76EF86A09006F00D4FF83F0C9
:1029180009006F00D4FF84F002D89DEF14F0050081
:10292800FA6E8351FD6E8451FE6EFF6AFA50FE0EF8
:10293800120000018251D96EDA6A6F0078FF2DF01B
:102948006F0074FF2EF08251D96EDA6A060ED9260E
:102958006F0078FF33F06F0074FF34F02D50836FF1
:102968002E50846F856B866B83512F5E8451305A4D
:102978008551315A8651325A2D50425E2E50435A53
:1029880033C060F034C061F02DC062F02EC063F037
:102998009F0EF66EFF0EF76EF86A09006F00D4FFFF
:1029A80083F009006F00D4FF84F002D8E5EF14F03B
:1029B8000500FA6E8351FD6E8451FE6EFF6AFA506F
:1029C800120042504310D8A4ECEF14F0EEEF14F0CC
:1029D80051EF14F0020E436E000E426E9D0EF66E1D
:1029E800FF0EF76EF86A09006F00D4FF83F0090044
:1029F8006F00D4FF84F002D80DEF15F00500FA6ED1
:102A080000018351FD6E8451FE6EFF6AFA50FF0E7D
:102A180012009D0EF66EFF0EF76EF86A09006F0041
:102A2800D4FF83F009006F00D4FF84F002D828EFA8
:102A380015F00500FA6E00018351FD6E8451FE6E9B
:102A4800FF6AFA50FF0E12009D0EF66EFF0EF76E2B
:102A5800F86A09006F00D4FF83F009006F00D4FF03
:102A680084F002D843EF15F00500FA6E0001835197
:102A7800FD6E8451FE6EFF6AFA50FF0E12001F0BA6
:102A8800050AD8B44AEF15F04CEF15F057EF15F0DA
:102A980000018251D96EDA6A0C0ED926FE0EDF6E5D
:102AA800030EF9EF16F000018251D96EDA6A0C0EA6
:102AB800D926030EDF6E000E3A6E000E3B6E0A0E2C
:102AC8003C6E000E3D6E54EF15F03A503B103C1032
:102AD8003D10D8B472EF15F074EF15F044EF16F00E
:102AE8003A06000E3B5A3C5A3D5A9D0EF66EFF0EB2
:102AF800F76EF86A09006F00D4FF83F009006F00D1
:102B0800D4FF84F002D893EF15F00500FA6E8351D4
:102B1800FD6E8451FE6EFF6AFA50FF0E12009D0E84
:102B2800F66EFF0EF76EF86A09006F00D4FF83F0A7
:102B380009006F00D4FF84F002D8AEEF15F005004D
:102B4800FA6E00018351FD6E8451FE6EFF6AFA50E1
:102B5800FF0E12004A6E4A50D8B4B5EF15F0B7EF21
:102B680015F054EF15F02F50301031103210D8A452
:102B7800C0EF15F0C2EF15F03AEF16F0000E3A6EFE
:102B8800000E3B6E0A0E3C6E000E3D6E0B0E491891
:102B9800D8A4D1EF15F0D3EF15F013EF16F09D0E72
:102BA800F66EFF0EF76EF86A09006F00D4FF83F027
:102BB80009006F00D4FF84F002D8EEEF15F005008D
:102BC800FA6E00018351FD6E8451FE6EFF6AFA5061
:102BD800FD0E12009D0EF66EFF0EF76EF86A0900E4
:102BE8006F00D4FF83F009006F00D4FF84F002D88F
:102BF80009EF16F00500FA6E00018351FD6E84514D
:102C0800FE6EFF6AFA50FF0E120000018251D96E63
:102C1800DA6A0C0ED926040EDF6E54EF15F0BA8A64
:102C28009D0EF66EFF0EF76EF86A09006F00D4FF6E
:102C380083F009006F00D4FF84F002D82FEF16F05C
:102C48000500FA6E00018351FD6E8451FE6EFF6A25
:102C5800FA50FF0E120000018251D96EDA6A0C0E8A
:102C6800D926DF6A010E526E99EF13F000018251E6
:102C7800D96EDA6A0C0ED926020EDF6E51EF14F007
:102C88008251D96EDA6A0C0ED926FE0EDF6E54EF29
:102C980015F03A503B103C103D10D8B456EF16F0E2
:102CA80058EF16F0A5EF16F03A06000E3B5A3C5ABC
:102CB8003D5A9D0EF66EFF0EF76EF86A09006F001A
:102CC800D4FF83F009006F00D4FF84F002D877EFB7
:102CD80016F00500FA6E8351FD6E8451FE6EFF6A90
:102CE800FA50FF0E12004A6E4A50D8B47EEF16F022
:102CF80080EF16F054EF15F0BA8A9D0EF66EFF0EAF
:102D0800F76EF86A09006F00D4FF83F009006F00BE
:102D1800D4FF84F002D89CEF16F00500FA6E00018B
:102D28008351FD6E8451FE6EFF6AFA50FF0E120049
:102D380000018251D96EDA6A0C0ED926DF6A36EFA5
:102D480016F0000E6B6F000E6C6F000E6D6F000EAC
:102D58006E6F050E82EC1CF0BA8A9D0EF66EFF0EA1
:102D6800F76EF86A09006F00D4FF83F009006F005E
:102D7800D4FF84F002D8CCEF16F00500FA6E0001FB
:102D88008351FD6E8451FE6EFF6AFA50FF0E1200E9
:102D980000018251D96EDA6A0C0ED926FF0EDF6E59
:102DA800010E526E47EF14F000018251D96EDA6AB3
:102DB8000C0ED926DF50000AD8B499EF13F0010A97
:102DC800D8B49CEF13F0030AD8B454EF14F0010AF6
:102DD800D8B469EF15F0070AD8B44DEF16F0FA0A1F
:102DE800D8B4A5EF16F0D4EF16F012006000D3F3B4
:102DF800D9FF6000D7F3DAFF6F0078FF11F16F0099
:102E080074FF12F10001F651F711F811F911D8A465
:102E180010EF17F012EF17F04FEF17F0010120EE47
:102E28000BF01151D9261251DA226F0078FF09F1FF
:102E38006F0078FF0AF16F0078FF0BF16F0078FFE1
:102E48000CF109510A110B110C11D8B42EEF17F01F
:102E580030EF17F045EF17F020EE17F01151D92693
:102E68001251DA22DE50095DDE500A59DE500B5944
:102E7800DE500C59D8A043EF17F045EF17F0B5EF27
:102E880017F0010E096F000E0A6F000E0B6F000E8F
:102E98000C6FB5EF17F0F4C0D3F0F5C0D4F0F6C05E
:102EA800D5F0F7C0D6F0F8C0D7F0F9C0D8F0BCEC30
:102EB80025F0D3C013F1D4C014F1D5C015F1D6C094
:102EC80016F1010116511511141107E1020E135DD7
:102ED800D8B071EF17F073EF17F07EEF17F0010E0F
:102EE8000001F46F000EF56F000EF66F000EF76F1D
:102EF800EFEF19F013290AE1142908E1152906E171
:102F08001629D8A48AEF17F08CEF17F096EF17F070
:102F180013C1F4F014C1F5F015C1F6F016C1F7F0BD
:102F2800EFEF19F020EE17F01151D9261251DA22DD
:102F3800DE50135DDE501459DE501559DE50165917
:102F4800D8B0A9EF17F0ABEF17F0ADEF17F08CEF93
:102F580017F0F6C009F1F7C00AF1F8C00BF1F9C093
:102F68000CF120EE0FF01151D9261251DA22DE5061
:102F7800DE10DE10DE10D8A4C4EF17F0C6EF17F08D
:102F8800D1EF17F0000E0001F46F000EF56F000E80
:102F9800F66F000EF76FEFEF19F0000E0D6F000ED1
:102FA8000E6F000E0F6F000E106F0001F651010139
:102FB800091913E10001F75101010A190EE1000195
:102FC800F85101010B1909E10001F95101010C192E
:102FD800D8A4F1EF17F0F3EF17F09DEF18F0010EFA
:102FE80009250D6F000E0A210E6F000E0B210F6FC1
:102FF800000E0C21106F20EE17F01151D926125136
:10300800DA22DE500D5DDE500E59DE500F59DE50CB
:103018001059D8A012EF18F014EF18F01CEF18F0A0
:10302800020E0D6F000E0E6F000E0F6F000E106F68
:10303800F4C0D3F0F5C0D4F00DC1D5F00EC1D6F070
:103048000FC1D7F010C1D8F0BCEC25F0D3C013F1F4
:10305800D4C014F1D5C015F1D6C016F1010113057D
:10306800141115111611D8B43CEF18F03EEF18F0F2
:103078008CEF17F013290AE1142908E1152906E154
:103088001629D8A44AEF18F04CEF18F04EEF18F0B4
:103098008CEF17F01351141115111611D8B457EFFE
:1030A80018F059EF18F09DEF18F020EE0BF01151C1
:1030B800D9261251DA226F0078FF13F16F0078FFDA
:1030C80014F16F0078FF15F16F0078FF16F11651B3
:1030D8001511141109E1020E135DD8A076EF18F04E
:1030E80078EF18F095EF18F020EE17F01151D92667
:1030F8001251DA22DE50135DDE501459DE50155994
:10310800DE501659D8B08BEF18F08DEF18F095EF08
:1031180018F013C109F114C10AF115C10BF116C158
:103128000CF1000E0D6F000E0E6F000E0F6F000EEB
:10313800106F0D510E110F111011D8A4A6EF18F031
:10314800A8EF18F035EF19F009C10DF10AC10EF119
:103158000BC10FF10CC110F1010E0D27000E0E234B
:103168000F23102320EE17F01151D9261251DA221D
:10317800DE500D5DDE500E59DE500F59DE501059ED
:10318800D8A0C9EF18F0CBEF18F0E2EF18F0020E54
:103198000D6F000E0E6F000E0F6F000E106F0C51AA
:1031A8000B110A1107E1020E095DD8B0DEEF18F025
:1031B800E0EF18F0E2EF18F0C6EF17F0F4C0D3F024
:1031C800F5C0D4F00DC1D5F00EC1D6F00FC1D7F0BF
:1031D80010C1D8F0BCEC25F0D3C013F1D4C014F161
:1031E800D5C015F1D6C016F10101135114111511EE
:1031F8001611D8A402EF19F004EF19F006EF19F030
:1032080035EF19F01305141115111611D8B40FEF75
:1032180019F011EF19F08CEF17F013290AE11429AE
:1032280008E1152906E11629D8A41DEF19F01FEFAA
:1032380019F021EF19F08CEF17F009510D190DE174
:103248000A510E190AE10B510F1907E10C51101917
:10325800D8A431EF19F033EF19F0B0EF18F0C6EF3A
:1032680017F011C1D3F012C1D4F00DC1D5F00EC1C1
:10327800D6F00FC1D7F010C1D8F0FF0E0001D96FFA
:10328800FF0EDA6FFF0EDB6FFF0EDC6FF0EC19F04C
:103298000101086F0851D8A454EF19F056EF19F03E
:1032A8007AEF19F00001F651F711F811F911D8B4B5
:1032B80060EF19F062EF19F07AEF19F011C1D3F04D
:1032C80012C1D4F0F6C0D5F0F7C0D6F0F8C0D7F0E8
:1032D800F9C0D8F00DC1D9F00EC1DAF00FC1DBF09A
:1032E80010C1DCF0F0EC19F00101086F0101085180
:1032F800D8A481EF19F083EF19F0D1EF19F020EE7F
:103308000BF01151D9261251DA22600037F4DEFF92
:1033180060003BF4DEFF60003FF4DEFF600043F432
:10332800DEFF20EE0FF01151D9261251DA2210EEED
:1033380017F01151E1261251E222FE0EE624046F25
:10334800FF0EE620056FFF0EE620066FFF0EE62053
:10335800076FDE50045DDE500559DE500659DE5019
:103368000759D8A0BAEF19F0BCEF19F0C7EF19F058
:1033780020EE0FF01151D9261251DA22DE06000E86
:10338800DE5ADE5ADE5A20EE04F01151D9261251C7
:10339800DA22000EDB80E7EF19F00805D8B4D7EF82
:1033A80019F0D9EF19F0E3EF19F0010E0D6F000EC7
:1033B8000E6F000E0F6F000E106FE7EF19F00D691A
:1033C8000E690F6910690DC1F4F00EC1F5F00FC157
:1033D800F6F010C1F7F01200020E0001F36FD85199
:1033E800D711D61109E1020ED55DD8A0FEEF19F06C
:1033F80000EF1AF080EF1CF020EE17F0D351D92619
:10340800D451DA22DE50D55DDE50D659DE50D75978
:10341800DE50D859D8B013EF1AF015EF1AF080EF34
:103428001CF06BEF1CF0D5C0F1F0D6C0F2F0D890CC
:10343800F231DE6FF131DD6FDD51F127DE51F2231C
:10344800D3C0C8F0D4C0C9F020EE23F0D351D92698
:10345800D451DA226F0078FFDDF06F0078FFDEF0DC
:103468006F0078FFDFF06F0078FFE0F0F1C0E1F067
:10347800F2C0E2F0090EE36FD890E233E133E32FB4
:1034880040EF1AF0E151DD25CA6FE251DE21CB6F22
:10349800000EDF21CC6F000EE021CD6FBFEC3DF0B8
:1034A8000001F36FF351D8B45CEF1AF05EEF1AF035
:1034B80060EF1AF080EF1CF0FF0EF115DD6F010EC2
:1034C800F215DE6FDD51D325DF6FDE51D421E06FB9
:1034D800330EDF25EF6F000EE021F06FF14BF22B7A
:1034E800D5B179EF1AF07BEF1AF080EF1AF0D9C056
:1034F800EBF0EC6B9CEF1AF0D951DD6FDE6BDD3B26
:10350800DE3BF00EDE17DD510F0BDE13F00EDD177C
:103518006000BFF3D9FF6000C3F3DAFFDF500F0B81
:10352800DF6FE06BDD51DF11EB6FDE51E011EC6F07
:103538006000BFF3D9FF6000C3F3DAFF6000AFF3A8
:10354800DFFF20EE03F0D351D926D451DA22010E41
:10355800DF6ED3C0C8F0D4C0C9F020EE23F0D35139
:10356800D926D451DA226F0078FFDDF06F0078FF9A
:10357800DEF06F0078FFDFF06F0078FFE0F0F1C059
:10358800E1F0F2C0E2F0090EE36FD890E233E133E4
:10359800E32FC9EF1AF0E151DD25CA6FE251DE21B0
:1035A800CB6F000EDF21CC6F000EE021CD6FBFEC9A
:1035B8003DF00001F36FF351D8B4E5EF1AF0E7EFEF
:1035C8001AF0E9EF1AF080EF1CF0FF0EF115DD6F2D
:1035D800010EF215DE6FDD51D325DF6FDE51D421E8
:1035E800E06F330EDF25EF6F000EE021F06FD5B1ED
:1035F80000EF1BF002EF1BF022EF1BF0D9C0DDF04B
:10360800DAC0DEF0DBC0DFF0DCC0E0F0DEC0DDF009
:10361800DFC0DEF0E0C0DFF0E06B0F0EDD1760000A
:10362800BFF3D9FF6000C3F3DAFFDF50F00BDD1101
:10363800E16FE151ED6FEE6B38EF1BF0D9C0DDF0B3
:10364800DAC0DEF0DBC0DFF0DCC0E0F0050E32EF00
:103658001BF0D890E033DF33DE33DD33E82E2DEF77
:103668001BF0DD51ED6FEE6B6000BFF3D9FF60001A
:10367800C3F3DAFF6000B7F3DFFF20EE03F0D351A6
:10368800D926D451DA22010EDF6E80EF1CF0D3C0A8
:10369800C8F0D4C0C9F020EE23F0D351D926D451B4
:1036A800DA226F0078FFDDF06F0078FFDEF06F0040
:1036B80078FFDFF06F0078FFE0F0D5C0E1F0D6C00A
:1036C800E2F0D7C0E3F0D8C0E4F0E2C0E1F0E3C034
:1036D800E2F0E4C0E3F0E46BDD51E125CA6FDE51AE
:1036E800E221CB6FDF51E321CC6FE051E421CD6FB4
:1036F800BFEC3DF00001F36FF351D8B486EF1BF037
:1037080088EF1BF08AEF1BF080EF1CF0D5C0DDF0CE
:10371800D6C0DEF0D890DD37DE37FF0EDD15DF6F5F
:10372800010EDE15E06FDF51D325E16FE051D421A2
:10373800E26F330EE125606F000EE221616FD9C0A0
:1037480062F0DAC063F048EC45F0000120EE03F0C7
:10375800D351D926D451DA22010EDF6E80EF1CF046
:10376800D3C0C8F0D4C0C9F020EE23F0D351D92675
:10377800D451DA226F0078FFDDF06F0078FFDEF0B9
:103788006F0078FFDFF06F0078FFE0F0D5C0E1F060
:10379800D6C0E2F0D7C0E3F0D8C0E4F0080EDAEF04
:1037A8001BF0D890E433E333E233E133E82ED5EF6E
:1037B8001BF0DD51E125CA6FDE51E221CB6FDF51ED
:1037C800E321CC6FE051E421CD6FBFEC3DF0000167
:1037D800F36FF351D8B4F3EF1BF0F5EF1BF0F7EFED
:1037E8001BF080EF1CF0D5C0DDF0D6C0DEF0D8901D
:1037F800DD37DE37D890DD37DE37FF0EDD15DF6FBA
:10380800010EDE15E06FDF51D325E16FE051D421C1
:10381800E26F330EE125606F000EE221616F91ECDB
:103828003EF0000E00016015E36F000E6115E46FB5
:10383800000E6215E56FF00E6315E66FFF0ED915E1
:10384800E76FFF0EDA15E86FFF0EDB15E96F0F0E55
:10385800DC15EA6FE351E711D96FE451E811DA6F2B
:10386800E551E911DB6FE651EA11DC6FD5C0DDF0F7
:10387800D6C0DEF0D890DD37DE37D890DD37DE37BA
:10388800FF0EDD15DF6F010EDE15E06FDF51D3256A
:10389800E16FE051D421E26F330EE125606F000E35
:1038A800E221616FD9C062F0DAC063F0DBC064F076
:1038B800DCC065F027EC40F0000120EE03F0D351A6
:1038C800D926D451DA22010EDF6E80EF1CF0600099
:1038D8004FF3D9FF600053F3DAFFDF50010AD8B481
:1038E80017EF1AF0030AD8B44BEF1BF0010AD8B44B
:1038F800B4EF1BF080EF1CF0F351120000017C6F55
:10390800BA9A780E0001606F616B6B0E626F636B21
:10391800000E656F040E646F6AEC43F09D0EF66E40
:10392800FF0EF76EF86A09006F00D4FF70F0090007
:103938006F00D4FF71F002D8BAEF1CF00500FA6EE0
:1039480000017051FD6E7151FE6EFF6AFA507C5194
:10395800040D490EF324F66EFF0EF420F76EF86A94
:10396800000EF8220800F550400912009D0EF66E70
:10397800FF0EF76EF86A09006F00D4FF70F00900B7
:103988006F00D4FF71F002D8D5EF1CF00500FA6E75
:1039980000017051FD6E7151FE6EFF6AFA507B5145
:1039A80012009D0EF66EFF0EF76EF86A09006F00A2
:1039B800D4FF70F009006F00D4FF71F002D8F0EF67
:1039C8001CF00500FA6E00017051FD6E7151FE6E1B
:1039D800FF6AFA507A5112009D0EF66EFF0EF76ECE
:1039E800F86A09006F00D4FF70F009006F00D4FF77
:1039F80071F002D80BEF1DF00500FA6E000170514E
:103A0800FD6E7151FE6EFF6AFA50795112009D0EDB
:103A1800F66EFF0EF76EF86A09006F00D4FF70F0BB
:103A280009006F00D4FF71F002D826EF1DF00500E1
:103A3800FA6E00017051FD6E7151FE6EFF6AFA5008
:103A4800785112009D0EF66EFF0EF76EF86A0900A7
:103A58006F00D4FF70F009006F00D4FF71F002D836
:103A680051EF1DF00500FA6E00017051FD6E7151A5
:103A7800FE6EFF6AFA507C51040D010EF326000E0B
:103A8800F422490EF324F66EFF0EF420F76EF86A5E
:103A9800000EF8220800F5501200050E00017C19EE
:103AA800D8A459EF1DF05BEF1DF075EF1DF09D0ECA
:103AB800F66EFF0EF76EF86A09006F00D4FF70F01B
:103AC80009006F00D4FF71F002D875EF1DF00500F2
:103AD800FA6E7051FD6E7151FE6EFF6AFA50FF0E5C
:103AE8001200000E0001776F140E766F9D0EF66EB1
:103AF800FF0EF76EF86A09006F00D4FF70F0090036
:103B08006F00D4FF71F002D894EF1DF00500FA6E33
:103B18007051FD6E7151FE6EFF6AFA50FF0E120071
:103B280000017D6F7607D8A077077D29D8A49FEF7D
:103B38001DF0A1EF1DF0AAEF1DF076517711D8A462
:103B4800A8EF1DF0AAEF1DF07AEF1DF07C51040DCF
:103B5800020EF326000EF422490EF324F66EFF0E31
:103B6800F420F76EF86A000EF8220800F550020AF1
:103B7800D8A4C1EF1DF0C3EF1DF0E3EF1DF07DC029
:103B88007EF09D0EF66EFF0EF76EF86A09006F0064
:103B9800D4FF70F009006F00D4FF71F002D8DFEF96
:103BA8001DF00500FA6E7051FD6E7151FE6EFF6AD0
:103BB800FA50FF0E120000017D6FC5EF1EF07C5118
:103BC800040D020EF326000EF422490EF324F66EBD
:103BD800FF0EF420F76EF86A000EF8220800F55080
:103BE800E806D8A4FAEF1DF0FCEF1DF03CEF1EF03C
:103BF800000E726F000E736F0A0E746F000E756FF1
:103C08009D0EF66EFF0EF76EF86A09006F00D4FF7E
:103C180070F009006F00D4FF71F002D81EEF1EF09B
:103C28000500FA6E7051FD6E7151FE6EFF6AFA5012
:103C3800FF0E120000017D6F7207000E735B745B4C
:103C4800755B7D51D8A42BEF1EF02DEF1EF038EFD9
:103C58001EF07251731174117511D8A436EF1EF04D
:103C680038EF1EF004EF1EF0000E7D6FC5EF1EF05A
:103C78007C51040D020EF326000EF422490EF324A3
:103C8800F66EFF0EF420F76EF86A000EF8220800B0
:103C9800F550040AD8A453EF1EF055EF1EF0C5EFF7
:103CA8001EF09D0EF66EFF0EF76EF86A09006F00A3
:103CB800D4FF70F009006F00D4FF71F002D86FEFE5
:103CC8001EF00500FA6E7051FD6E7151FE6EFF6AAE
:103CD800FA50FF0E12000001816F9D0EF66EFF0E66
:103CE800F76EF86A09006F00D4FF70F009006F00E2
:103CF800D4FF71F002D88BEF1EF00500FA6E7051F8
:103D0800FD6E7151FE6EFF6AFA50FF0E120000013F
:103D1800806F9D0EF66EFF0EF76EF86A09006F0051
:103D2800D4FF70F009006F00D4FF71F002D8A7EF3C
:103D38001EF00500FA6E7051FD6E7151FE6EFF6A3D
:103D4800FA50FF0E120000017F6F9D0EF66EFF0EF7
:103D5800F76EF86A09006F00D4FF70F009006F0071
:103D6800D4FF71F002D8C3EF1EF00500FA6E70514F
:103D7800FD6E7151FE6EFF6AFA50FF0E12000001CF
:103D88007E6F9D0EF66EFF0EF76EF86A09006F00E3
:103D9800D4FF70F009006F00D4FF71F002D8DFEF94
:103DA8001EF00500FA6E7051FD6E7151FE6EFF6ACD
:103DB800FA50FF0E120000017C51040D030EF32689
:103DC800000EF422490EF324F66EFF0EF420F76E6F
:103DD800F86A000EF8220800F5500009D8A4F7EF99
:103DE8001EF0F9EF1EF0FAEF1EF0BA8A20EE7DF011
:103DF80000EE6BF0040E6F006FFFEBFFE806FBE2CE
:103E080012006000ABF1D9FF6000AFF1DAFF6F007C
:103E180078FF75F06F0074FF76F01C0E00016825BE
:103E2800796F000E69217A6F79C060F07AC061F00D
:103E3800000E636F200E626F000E656F0B0E646FCD
:103E4800F2EC44F0000E0001786F000E776F77C037
:103E58007BF078C07CF0000E746F080E736F7B5196
:103E680075256C6F7C5176216D6F6000B3F1F6FF9C
:103E78006000B7F1F7FFF86A0800F5502E0AD8A4D9
:103E880048EF1FF04AEF1FF0CDEF1FF07B5175256B
:103E98006C6F7C5176216D6F6000B3F1F6FF6000A6
:103EA800B7F1F7FFF86A08006F00D4FF7DF07B4B8D
:103EB8007C2B2E0E7D19D8A464EF1FF066EF1FF03F
:103EC80080EF1FF07C5109E1030E7B5DD8A06FEFF6
:103ED8001FF071EF1FF073EF1FF080EF1FF07751A5
:103EE8007925D96E78517A21DA6E6000F7F1DFFF13
:103EF800774B782B4AEF1FF02F0E7D19D8B487EF38
:103F08001FF089EF1FF09DEF1FF05C0E7D19D8B4EC
:103F180090EF1FF092EF1FF09DEF1FF0200E7D65D0
:103F280098EF1FF09AEF1FF09DEF1FF0060E59EF64
:103F380021F07B5175256C6F7C5176216D6F600087
:103F4800ABF1D9FF6000AFF1DAFF6000B3F1DEFF3B
:103F58006000B7F1DDFF200E7D65B5EF1FF0B7EF0C
:103F68001FF0BDEF1FF0000E6F6F200E6E6FC1EFD8
:103F78001FF0000E6F6F240E6E6F20EE0BF079515C
:103F8800D9267A51DA226000BBF1DFFF000E59EF23
:103F980021F07B5175256C6F7C5176216D6F600027
:103FA800B3F1F6FF6000B7F1F7FFF86A08006F0099
:103FB800D4FF7DF07B4B7C2B210E7D61E6EF1FF05B
:103FC800E8EF1FF0EAEF1FF008EF21F02F0E7D1940
:103FD800D8B4F1EF1FF0F3EF1FF000EF20F05C0E04
:103FE8007D19D8A4FAEF1FF0FCEF1FF030EF20F096
:103FF80000EF20F07B4B7C2B7B5175256C6F7C513F
:1040080076216D6F6000B3F1F6FF6000B7F1F7FF3E
:10401800F86A0800F5502F0AD8B415EF20F017EF0A
:1040280020F0FEEF1FF07B5175256C6F7C517621D7
:104038006D6F6000B3F1F6FF6000B7F1F7FFF86A43
:104048000800F5505C0AD8B42CEF20F02EEF20F0D1
:10405800FEEF1FF008EF21F02E0E7D19D8B437EFD0
:1040680020F039EF20F044EF20F07351775D745160
:104078007859D8A042EF20F044EF20F063EF20F009
:104088000B0E73197411D8B44CEF20F04EEF20F0DA
:104098009AEF1FF02E0E7D19D8B455EF20F057EF88
:1040A80020F059EF20F09AEF1FF0000E786F080EFD
:1040B800776F000E746F0B0E736FCDEF1FF07F0ECE
:1040C8007D6569EF20F06BEF20F07CEF20F07D51EB
:1040D8007F0B6C6F6D6BC90E6C25F66EFE0E6D2135
:1040E800F76EF86A000EF82208006F00D4FF7DF022
:1040F8007D516AEC46F0000160516111D8B487EF38
:1041080020F089EF20F0D4EF20F07B5175256C6FFB
:104118007C5176216D6F6000B3F1F6FF6000B7F156
:10412800F7FFF86A08006F00D4FF72F07B4B7C2B16
:10413800725164EC46F0000160516111D8B4A7EFE8
:1041480020F0A9EF20F09AEF1FF0FF0E73256C6F97
:10415800FF0E74216D6F6C51775D6D517859D8A041
:10416800B8EF20F0BAEF20F0BCEF20F09AEF1FF084
:1041780077517925D96E78517A21DA6E6000F7F196
:10418800DFFF774B782B77517925D96E78517A21D3
:10419800DA6E6000CBF1DFFF774B782BCDEF1FF0A5
:1041A800D00E606FFF0E616F7DC062F0636B26EC0E
:1041B80041F0000160516111D8B4E5EF20F0E7EF5C
:1041C80020F0E9EF20F09AEF1FF0600E7D65EFEF29
:1041D80020F0F1EF20F0FBEF20F07B0E7D61F7EF90
:1041E80020F0F9EF20F0FBEF20F0200E7D5F7751F3
:1041F8007925D96E78517A21DA6E6000F7F1DFFF00
:10420800774B782BCDEF1FF07B5175256C6F7C5168
:1042180076216D6F6000ABF1D9FF6000AFF1DAFF76
:104228006000B3F1DEFF6000B7F1DDFF7751781170
:10423800D8A421EF21F023EF21F025EF21F09AEF08
:104248001FF06000E7F1D9FF6000EBF1DAFFE50E3F
:10425800DE18D8A432EF21F034EF21F03CEF21F042
:104268006000E7F1D9FF6000EBF1DAFF050EDF6EC1
:10427800200E7D6542EF21F044EF21F04AEF21F056
:10428800000E716F000E706F4EEF21F0000E716F0F
:10429800040E706F20EE0BF07951D9267A51DA228C
:1042A8006000C3F1DFFFCAEF1FF012006000EBF3FC
:1042B800D9FF6000EFF3DAFF6F0078FF27F16F0096
:1042C80074FF28F1000120EE0EF0FA51D926FB51B7
:1042D800DA226F0078FF17F16F0078FF18F16F008E
:1042E80078FF19F16F0078FF1AF1200E01011725E8
:1042F800236F000E1821246F000E1921256F000E60
:104308001A21266F000120EE16F0FA51D926FB512A
:10431800DA22DE50DE10DE10DE10D8B496EF21F07F
:1043280098EF21F0A4EF21F00101265109E1200EB8
:10433800255DD8A0A2EF21F0A4EF21F0A7EF21F08E
:10434800040E92EF23F0FF0E2315176F010E2415AC
:10435800186F000E2515196F000E26151A6F1751C4
:10436800181119111A11D8A4BCEF21F0BEEF21F0D1
:1043780060EF23F0000120EE16F0FA51D926FB5128
:10438800DA22DE2A000EDE22DE22DE2220EE12F003
:10439800FA51D926FB51DA22DE50DE10DE10DE108B
:1043A800D8A4D9EF21F0DBEF21F01DEF22F00101B5
:1043B80020EE07F02751D9262851DA226F0078FF1E
:1043C80017F16F0074FF18F11751196F18511A6F10
:1043D8001B6B1C6B23C11DF124C11EF125C11FF1EC
:1043E80026C120F1060EFEEF21F0D89020331F33AE
:1043F8001E331D33E82EF9EF21F019511D5D1A51B6
:104408001E591B511F591C512059D8A00EEF22F0DC
:1044180010EF22F060EF23F0000120EE16F0FA51C1
:10442800D926FB51DA22DE6ADE6ADE6ADD6AA4EF8B
:1044380021F0010120EE09F02751D9262851DA226E
:104448006F0078FF17F16F0074FF18F1FF0E172542
:10445800196FFF0E18211A6F23C11BF124C11CF11B
:1044680025C11DF126C11EF10A0E40EF22F0D89099
:104478001E331D331C331B33E82E3BEF22F019513A
:104488001B151F6F1A511C15206F000E1D15216F6B
:10449800000E1E15226F1F51201121112211D8A4C0
:1044A80058EF22F05AEF22F060EF23F0FAC0D3F071
:1044B800FBC0D4F0000120EE12F0FA51D926FB51CE
:1044C800DA226F0078FFD5F06F0078FFD6F06F0022
:1044D80078FFD7F06F0078FFD8F0BCEC25F0D3C098
:1044E80029F1D4C02AF1D5C02BF1D6C02CF1010195
:1044F8002C512B112A1107E1020E295DD8B087EF44
:1045080022F089EF22F08CEF22F0020E92EF23F0D6
:1045180029290AE12A2908E12B2906E12C29D8A40E
:1045280098EF22F09AEF22F09DEF22F0010E92EF21
:1045380023F020EE17F02751D9262851DA22DE5031
:10454800295DDE502A59DE502B59DE502C59D8A04F
:10455800B0EF22F0B2EF22F02CEF23F00001FC5173
:10456800FD11D8A4BAEF22F0BCEF22F0C8EF22F078
:1045780020EE16F0FA51D926FB51DA22DE6ADE6AFD
:10458800DE6ADD6AA4EF21F0FAC0F4F0FBC0F5F0B2
:1045980020EE12F0FA51D926FB51DA226F0078FF8B
:1045A800F6F06F0078FFF7F06F0078FFF8F06F0013
:1045B80078FFF9F0FAEC16F0F4C029F1F5C02AF109
:1045C800F6C02BF1F7C02CF1010129512A112B114A
:1045D8002C11D8A4F2EF22F0F4EF22F0F7EF22F03A
:1045E800070E92EF23F029052A112B112C11D8A4BC
:1045F80000EF23F002EF23F004EF23F089EF22F01D
:1046080029290AE12A2908E12B2906E12C29D8A41D
:1046180010EF23F012EF23F014EF23F09AEF22F0BB
:1046280027C1C8F028C1C9F029C1CAF02AC1CBF0F6
:104638002BC1CCF02CC1CDF022EC36F00009D8B457
:1046480028EF23F02AEF23F02CEF23F09AEF22F043
:10465800000120EE12F0FA51D926FB51DA2260004F
:10466800A7F4DEFF6000ABF4DEFF6000AFF4DEFF0E
:104678006000B3F4DEFF27C16CF028C16DF029C1DA
:104688006EF02AC16FF02BC170F02CC171F051ECA3
:104698003DF0000120EE16F0FA51D926FB51DA223E
:1046A8006000B3F1DEFF6000B7F1DEFF6000BBF130
:1046B800DEFF6000BFF1DEFF000120EE0EF0FA51D0
:1046C800D926FB51DA2260008FF4DEFF600093F4F4
:1046D800DEFF600097F4DEFF60009BF4DEFFFF0E54
:1046E80001012315176F010E2415186F175127257F
:1046F800196F185128211A6F330E1927000E1A2323
:10470800000120EE1AF0FA51D926FB51DA22600096
:1047180067F4DEFF60006BF4DDFF000E12009AEF15
:1047280025F0000EBBEF25F0020E526E020E456E0C
:10473800000E446E8251D96EDA6A10EE2DF00C0E1E
:104748006F006FFFE3FFE806FBE25750D8A4AFEF16
:1047580023F0B1EF23F0BAEF23F0090ED8903536E5
:10476800363637363836E82EB2EF23F0325031106D
:1047780008E12F04020E3058D8B0C5EF23F0C7EF78
:1047880023F0DEEF23F0010E4B6E35C06BF036C020
:104798006CF037C06DF038C06EF0080E82EC1CF07B
:1047A80020EE87F0040E6F00AFFFDBFFE806FBE2A8
:1047B800F3EF23F0000E4B6E35C06BF036C06CF093
:1047C80037C06DF038C06EF0090E82EC1CF020EE98
:1047D80087F0040E6F00AFFFDBFFE806FBE2000185
:1047E8008751D8B4FAEF23F0FCEF23F006EF24F05A
:1047F8008251D96EDA6A0C0ED926FE0EDF6E010ED2
:10480800BBEF25F0000E0101B36F000EB46F040E6C
:10481800B56F000EB66F00018251D96EDA6A0C0EC0
:10482800D926030EDF6E03EF24F00101B351B41152
:10483800B511B611D8B423EF24F025EF24F06BEFAF
:1048480024F0B307000EB45BB55BB65B9D0EF66E45
:10485800FF0EF76EF86A09006F00D4FF83F00900B5
:104868006F00D4FF84F002D845EF24F00500FA6EFB
:1048780000018351FD6E8451FE6EFF6AFA50FF0EEF
:10488800120000018C6F8C29D8B44DEF24F04FEF43
:1048980024F003EF24F0FE0E8C19D8A456EF24F070
:1048A80058EF24F062EF24F08251D96EDA6A0C0EC8
:1048B800D926020EDF6E020EBBEF25F08251D96EAB
:1048C800DA6A0C0ED926FE0EDF6E03EF24F0000123
:1048D8008251D96EDA6A0C0ED926FE0EDF6E03EF0E
:1048E80024F02F50301031103210D8B47EEF24F05D
:1048F80080EF24F02DEF25F08251D96EDA6A6F002F
:1049080078FF2DF06F0074FF2EF08251D96EDA6AAD
:10491800060ED9266F0078FF33F06F0074FF34F06D
:104928002D50836F2E50846F856B866B83512F5E5D
:104938008451305A8551315A8651325A2D50445E2D
:104948002E50455A33C060F034C061F0000E636FDA
:1049580062692DC064F02EC065F0D8EC42F033C017
:1049680060F034C061F02DC062F02EC063F09F0E7D
:10497800F66EFF0EF76EF86A09006F00D4FF83F039
:1049880009006F00D4FF84F002D8D5EF24F00500A9
:10499800FA6E00018351FD6E8451FE6EFF6AFA5073
:1049A800120044504510D8A4DCEF24F0DEEF24F0C8
:1049B8005FEF24F09D0EF66EFF0EF76EF86A0900A1
:1049C8006F00D4FF83F009006F00D4FF84F002D891
:1049D800F9EF24F00500FA6E00018351FD6E845151
:1049E800FE6EFF6AFA50FF0E12009D0EF66EFF0E65
:1049F800F76EF86A09006F00D4FF83F009006F00B2
:104A0800D4FF84F002D814EF25F00500FA6E0001F7
:104A18008351FD6E8451FE6EFF6AFA50FF0E12003C
:104A28002F50301031103210D8B41DEF25F01FEF81
:104A380025F027EF25F000018251D96EDA6A0C0EB5
:104A4800D926030EDF6E020E456E000E446E03EF8C
:104A580024F04B50D8A433EF25F035EF25F040EF84
:104A680025F0000E6B6F000E6C6F000E6D6F000E60
:104A78006E6F050E82EC1CF0BA8A9D0EF66EFF0E64
:104A8800F76EF86A09006F00D4FF83F009006F0021
:104A9800D4FF84F002D85CEF25F00500FA6E00011F
:104AA8008351FD6E8451FE6EFF6AFA50FF0E1200AC
:104AB80000018251D96EDA6A0C0ED926DF6A010E1E
:104AC800526E95EF23F08251D96EDA6A0C0ED92610
:104AD800FF0EDF6E000E6B6F000E6C6F000E6D6FB9
:104AE800000E6E6F050E82EC1CF0BA8A9D0EF66EF3
:104AF800FF0EF76EF86A09006F00D4FF83F0090013
:104B08006F00D4FF84F002D895EF25F00500FA6E07
:104B180000018351FD6E8451FE6EFF6AFA50FF0E4C
:104B28001200010E526EFF0EBBEF25F000018251FC
:104B3800D96EDA6A0C0ED926DF50000AD8B495EF80
:104B480023F0010AD8B498EF23F0030AD8B475EF1C
:104B580024F0010AD8B419EF24F0FD0AD8B467EF9D
:104B680025F0010AD8B479EF25F079EF25F0120085
:104B780060004FF3D9FF600053F3DAFF6F0078FF4E
:104B8800EBF06F0074FFECF00001D851D711D6118B
:104B980009E1020ED55DD8A0D4EF25F0D6EF25F0B7
:104BA800EBEF25F020EE17F0EB51D926EC51DA2285
:104BB800DE50D55DDE50D659DE50D759DE50D85973
:104BC800D8A0E9EF25F0EBEF25F0F5EF25F0010E81
:104BD800E56F000EE66F000EE76F000EE86FBFEF9F
:104BE80027F0E569E669E769E869AAEF27F0D5C023
:104BF800E9F0D6C0EAF0D890EA31DA6FE931D96F36
:104C0800D951E927DA51EA23EBC0C8F0ECC0C9F062
:104C180020EE23F0EB51D926EC51DA226F0078FF11
:104C2800D9F06F0078FFDAF06F0078FFDBF06F00E3
:104C380078FFDCF0E9C0DDF0EAC0DEF0090EDF6FD6
:104C4800D890DE33DD33DF2F24EF26F0DD51D92570
:104C5800CA6FDE51DA21CB6F000EDB21CC6F000E5C
:104C6800DC21CD6FBFEC3DF00009D8B43EEF26F053
:104C780040EF26F042EF26F0BFEF27F0FF0E0001CD
:104C8800E915D96F010EEA15DA6FD951EB25DB6FFB
:104C9800DA51EC21DC6F330EDB25D96E000EDC21F6
:104CA800DA6EDF50DD6FDD51E36FE46BE94BEA2B21
:104CB800EBC0C8F0ECC0C9F020EE23F0EB51D926C8
:104CC800EC51DA226F0078FFD9F06F0078FFDAF044
:104CD8006F0078FFDBF06F0078FFDCF0E9C0DDF0F3
:104CE800EAC0DEF0090EDF6FD890DE33DD33DF2F48
:104CF80078EF26F0DD51D925CA6FDE51DA21CB6F66
:104D0800000EDB21CC6F000EDC21CD6FBFEC3DF037
:104D18000009D8B492EF26F094EF26F096EF26F02B
:104D2800BFEF27F0FF0E0001E915D96F010EEA1554
:104D3800DA6FD951EB25DB6FDA51EC21DC6F330EDA
:104D4800DB25D96E000EDC21DA6EDF50DD6FDD5118
:104D5800DF6FDE6BDE51E313DF51E413D5B1B7EF3C
:104D680026F0B9EF26F0C1EF26F0FF0EE315E16F4C
:104D78000F0EE415E26FD1EF26F0E3C0D9F0E4C0DE
:104D8800DAF0040EDB6FD890DA33D933DB2FC7EFB4
:104D980026F0D9C0E1F0DAC0E2F0E1C0E5F0E2C007
:104DA800E6F0E76BE86BBFEF27F0EBC0C8F0ECC0AC
:104DB800C9F020EE23F0EB51D926EC51DA226F002E
:104DC80078FFD9F06F0078FFDAF06F0078FFDBF03A
:104DD8006F0078FFDCF0D5C0DDF0D6C0DEF0D7C0BC
:104DE800DFF0D8C0E0F0DEC0DDF0DFC0DEF0E0C00C
:104DF800DFF0E06BD951DD25CA6FDA51DE21CB6FC8
:104E0800DB51DF21CC6FDC51E021CD6FBFEC3DF0F1
:104E18000009D8B412EF27F014EF27F016EF27F0A7
:104E2800BFEF27F0D5C0D9F0D6C0DAF0D89000018E
:104E3800D937DA37FF0ED915DB6F010EDA15DC6FBB
:104E4800DB51EB25DD6FDC51EC21DE6F330EDD2508
:104E5800606F000EDE21616FB5EC44F0000160C0A8
:104E6800E5F061C0E6F0E76BE86BBFEF27F0EBC059
:104E7800C8F0ECC0C9F020EE23F0EB51D926EC5174
:104E8800DA226F0078FFD9F06F0078FFDAF06F0050
:104E980078FFDBF06F0078FFDCF0D5C0DDF0D6C01E
:104EA800DEF0D7C0DFF0D8C0E0F0080E61EF27F0E1
:104EB800D890E033DF33DE33DD33E82E5CEF27F0C4
:104EC800D951DD25CA6FDA51DE21CB6FDB51DF21E5
:104ED800CC6FDC51E021CD6FBFEC3DF00009D8B4B8
:104EE80078EF27F07AEF27F07CEF27F0BFEF27F075
:104EF800D5C0D9F0D6C0DAF00001D890D937DA3762
:104F0800D890D937DA37FF0ED915DB6F010EDA15CD
:104F1800DC6FDB51EB25DD6FDC51EC21DE6F330EEE
:104F2800DD25606F000EDE21616F91EC3EF0FF0E13
:104F380000016015E56FFF0E6115E66FFF0E621543
:104F4800E76F0F0E6315E86FBFEF27F06000AFF350
:104F5800D9FF6000B3F3DAFFDF50010AD8B4FBEFE2
:104F680025F0030AD8B4D9EF26F0010AD8B43BEFEC
:104F780027F0EBEF25F0E5C0D3F0E6C0D4F0E7C0AA
:104F8800D5F0E8C0D6F012006000B7F3D9FF600092
:104F9800BBF3DAFF6F0078FF08F16F0074FF09F1C7
:104FA8000001F25107E1200EF15DD8B0DEEF27F0E5
:104FB800E0EF27F0F7EF27F01F0EEF15F36F000E65
:104FC800F015F46F000EF115F56F000EF215F66F7F
:104FD800F351F411F511F611D8B4F5EF27F0F7EF06
:104FE80027F0FAEF27F0020EC8EF29F020EE0EF0B6
:104FF800ED51D926EE51DA226000BFF3DEFF6000E2
:10500800C3F3DEFF6000C7F3DEFF6000CBF3DEFF13
:1050180020EE06F0ED51D926EE51DA226F0078FF26
:1050280004F16F0078FF05F16F0078FF06F16F005B
:1050380078FF07F101010451051106110711D8A4E1
:1050480028EF28F02AEF28F04AEF28F0600023F430
:10505800D9FF600027F4DAFF020EDF6436EF28F08C
:1050680038EF28F04AEF28F020EE27F00851D9262B
:105078000951DA226F0078FF04F16F0078FF05F11B
:105088006F0078FF06F16F0078FF07F104510511F2
:1050980006110711D8A453EF28F055EF28F0A8EF10
:1050A80028F020EE07F00851D9260951DA226F00BE
:1050B80078FFF3F06F0074FFF4F00001F351F56F1F
:1050C800F451F66FF76BF86BEFC0F9F0F0C0FAF037
:1050D800F1C0FBF0F2C0FCF0060E78EF28F0D89093
:1050E800FC33FB33FA33F933E82E73EF28F0F5512C
:1050F800F95DF651FA59F751FB59F851FC59D8A006
:1051080088EF28F08AEF28F08CEF28F0F7EF27F0E7
:10511800010120EE27F00851D9260951DA220001B1
:1051280010EE16F0ED51E126EE51E2226F007BFF02
:10513800E6FF6F007BFFE6FF6F007BFFE6FF6F0077
:105148007BFFE6FF61EF29F020EE09F00851D92630
:105158000951DA226F0078FFF3F06F0074FFF4F062
:105168000001F351F56FF451F66FF76BF86B090E08
:10517800D890F537F637F737F837E82EBCEF28F030
:10518800F5C000F1F6C001F1F7C002F1F8C003F173
:1051980029EF29F0EDC0D3F0EEC0D4F004C1D5F06A
:1051A80005C1D6F006C1D7F007C1D8F0BCEC25F090
:1051B800D3C004F1D4C005F1D5C006F1D6C007F1BB
:1051C800010104290AE1052908E1062906E1072960
:1051D800D8A4F1EF28F0F3EF28F0F6EF28F0010E4D
:1051E800C8EF29F007510611051109E1020E045D07
:1051F800D8A001EF29F003EF29F0F7EF27F020EE10
:1052080017F00851D9260951DA22DE50045DDE5024
:105218000559DE500659DE500759D8A016EF29F077
:1052280018EF29F01AEF29F0F7EF27F000510001E5
:10523800EF5F010101510001F05B01010251000122
:10524800F15B010103510001F25B01010051000112
:10525800EF5D010101510001F05901010251000106
:10526800F159010103510001F259D8B03EEF29F07C
:1052780040EF29F0CEEF28F008C16CF009C16DF0BD
:1052880004C16EF005C16FF006C170F007C171F07E
:1052980051EC3DF0000120EE16F0ED51D926EE510B
:1052A800DA226000B3F1DEFF6000B7F1DEFF6000D4
:1052B800BBF1DEFF6000BFF1DEFF20EE12F0ED5122
:1052C800D926EE51DA22600013F4DEFF600017F4ED
:1052D800DEFF60001BF4DEFF60001FF4DEFF20EE3F
:1052E80016F0ED51D926EE51DA22DE50DE10DE102E
:1052F800DE10D8A482EF29F084EF29F086EF29F098
:10530800F7EF27F0EFC0F3F0F0C0F4F0F1C0F5F0DC
:10531800F2C0F6F00A0E96EF29F0D890F633F5337E
:10532800F433F333E82E91EF29F020EE16F0ED5127
:10533800D926EE51DA22F351DE26F451DE22F55158
:10534800DE22F651DE22FF0EEF15F36F010EF01587
:10535800F46FF351010108250001F56FF4510101C3
:1053680009210001F66F330EF527000EF62320EE13
:105378001AF0ED51D926EE51DA226000D7F3DEFF9C
:105388006000DBF3DDFF000E12006000CFF4D9FFF0
:105398006000D3F4DAFF6F0078FF3DF16F0074FF0F
:1053A8003EF16000D7F4F6FF6000DBF4F7FFF86A1F
:1053B8000800F5502F0AD8B4E4EF29F0E6EF29F0F9
:1053C80015EF2AF06000D7F4F6FF6000DBF4F7FF72
:1053D800F86A0800F5505C0AD8B4F5EF29F0F7EF41
:1053E80029F015EF2AF0010120EE13F03D51D926DE
:1053F8003E51DA2210EE06F03351E1263451E22212
:105408006F007BFFE6FF6F007BFFE6FF6F007BFF0F
:10541800E6FF6F007BFFE6FF42EF2AF00101354B04
:10542800362B6000D7F4F6FF6000DBF4F7FFF86A6C
:105438000800F5502F0AD8B424EF2AF026EF2AF0F6
:1054480012EF2AF06000D7F4F6FF6000DBF4F7FFF4
:10545800F86A0800F5505C0AD8B435EF2AF037EF3F
:105468002AF012EF2AF0010120EE06F03351D92676
:105478003451DA22DE6ADE6ADE6ADD6A6000D7F459
:10548800F6FF6000DBF4F7FFF86A200E0800F5600D
:1054980050EF2AF052EF2AF06DEF2AF020EE27F0B5
:1054A8003351D9263451DA22800EDF6E33C1EDF044
:1054B80034C1EEF0000E0001EF6F000EF06F000E29
:1054C800F16F000EF26FC8EC27F00101406F21EF79
:1054D8002BF033C168F034C169F0350E00016A6FF2
:1054E800010E6B6F05EC1FF00101406F4051D8B4FD
:1054F80080EF2AF082EF2AF084EF2AF021EF2BF0D8
:1055080033C12DF134C12EF170EC32F00101406F3E
:1055180020EE27F03351D9263451DA22DF503F6F7D
:105528004051D8B49AEF2AF09CEF2AF0CCEF2AF039
:10553800040E4019D8A4A3EF2AF0A5EF2AF021EF12
:105548002BF03FABAAEF2AF0ACEF2AF0C1EF2AF01C
:105558003FB5B1EF2AF0B3EF2AF0B5EF2AF06DEFBF
:105568002AF020EE27F03351D9263451DA22800E62
:10557800DF6E000E406F21EF2BF03FB5C6EF2AF02B
:10558800C8EF2AF021EF2BF0050E406F21EF2BF02A
:105598003FA5D1EF2AF0D3EF2AF0D5EF2AF021EF7B
:1055A8002BF020EE04F03351D9263451DA22DFB83B
:1055B800E0EF2AF0E2EF2AF0E4EF2AF0C8EF2AF051
:1055C8003DC167F03EC168F020EE0EF03351D92698
:1055D8003451DA226F0078FF37F16F0074FF38F129
:1055E800FF0E3715396F010E38153A6F39513D25C1
:1055F8003B6F3A513E213C6F330E3B250001696FEA
:10560800000E01013C2100016A6FE2EC3FF001014C
:1056180020EE06F03351D9263451DA220001600019
:105628009FF1DEFF6000A3F1DEFF6000A7F1DEFF5F
:105638006000ABF1DEFF6DEF2AF040511200600010
:10564800D3F3D9FF6000D7F3DAFF6F0078FF0DF1CD
:105658006F0074FF0EF10001F951F811F71109E11B
:10566800020EF65DD8A03BEF2BF03DEF2BF054EF88
:105678002BF0010120EE17F00D51D9260E51DA2238
:10568800DE500001F65DDE50F759DE50F859DE5065
:10569800F959D8A052EF2BF054EF2BF057EF2BF01D
:1056A800020E43EF2CF0FA51FB11FC11FD11D8B496
:1056B80060EF2BF062EF2BF085EF2BF00DC1D3F0EC
:1056C8000EC1D4F0FAC0D5F0FBC0D6F0FCC0D7F0BC
:1056D800FDC0D8F0FF0ED96FFF0EDA6FFF0EDB6F3B
:1056E800FF0EDC6FF0EC19F001010C6F0C51D8B40F
:1056F80080EF2BF082EF2BF085EF2BF00C5143EF6E
:105708002CF0F4C0D3F0F5C0D4F0F6C0D5F0F7C053
:10571800D6F0F8C0D7F0F9C0D8F0BCEC25F0D3C06B
:1057280008F1D4C009F1D5C00AF1D6C00BF10101C6
:10573800085109110A110B11D8A4A5EF2BF0A7EFF6
:105748002BF0A9EF2BF042EF2CF0080509110A11F4
:105758000B11D8A4B2EF2BF0B4EF2BF0B6EF2BF06F
:1057680054EF2BF008290AE1092908E10A2906E182
:105778000B29D8A4C2EF2BF0C4EF2BF0C7EF2BF006
:10578800010E43EF2CF00DC1D3F00EC1D4F0F6C0DA
:10579800D5F0F7C0D6F0F8C0D7F0F9C0D8F0000EB1
:1057A8000001D96F000EDA6F000EDB6F000EDC6FA0
:1057B800F0EC19F001010C6F0C51D8B4E6EF2BF0A6
:1057C800E8EF2BF0EAEF2BF082EF2BF020EE17F04A
:1057D8000D51D9260E51DA22FE0EDE24006FFF0E7F
:1057E800DE20016FFF0EDE20026FFF0EDE20036F4A
:1057F80020EE0FF00D51D9260E51DA220051DE5C51
:105808000151DE580251DE580351DE58D8B00FEF6F
:105818002CF011EF2CF024EF2CF020EE0FF00D51AE
:10582800D9260E51DA22DE2A000EDE22DE22DE2200
:1058380020EE04F00D51D9260E51DA22000EDB803D
:1058480008C1F6F009C1F7F00AC1F8F00BC1F9F088
:1058580020EE17F00D51D9260E51DA22DE50000144
:10586800F65DDE50F759DE50F859DE50F959D8A0E8
:1058780040EF2CF042EF2CF085EF2BF0000E1200D9
:105888005BEC46F009EC43F0D28EFBEC45F07BEC88
:1058980045F060C0A8F161C0A9F162C0AAF163C077
:1058A800ABF17BEC45F0C492330E3A01116FC48022
:1058B8006091100EED6F000E0001606F1B0E616F9E
:1058C800B70E626F000E636FAC0E646F010E656FEA
:1058D80091EC30F0AC0E0001606F010E616F520E5A
:1058E800626F7C0E636F44EC33F0000E00016F6F43
:1058F800020E706F000E726F640E716FB00E736FD0
:10590800730E746F000E756F000E766F2CEC45F0F9
:10591800180E28EC46F0000E63EC45F0ADEC38F0BC
:10592800C49CBC8C0AEC46F019EC46F0C396BB96B6
:10593800C294C296C298C494640E0001E76F020E26
:10594800E86FEA0EE96FFF0EEA6F010EEB6FE1EC0C
:105958003CF00009D8A4B3EF2CF0B5EF2CF017EF0A
:105968002DF0970E0101416F040E426FEB0E436F4D
:10597800FF0E446F070E456FA0EC0FF00009D8A486
:10598800C8EF2CF0CAEF2CF02CEF2DF0970E010188
:10599800176F040E186FDF0E196FFF0E1A6F000EC7
:1059A8001C6F0A0E1B6FD80E1D6F010E1E6F69EC5F
:1059B80007F0970E0001DA6F040EDB6FC5EC43F0B9
:1059C8002CEF2DF07BEC45F00101A8510001605D42
:1059D8000101A46FA951000161590101A56FAA51E4
:1059E800000162590101A66FAB5100016359010121
:1059F800A76FA751A6110BE1F50EA45D010EA559DD
:105A0800D8A009EF2DF00BEF2DF017EF2DF07BEC60
:105A180045F060C0A8F161C0A9F162C0AAF163C0F5
:105A2800ABF194EC44F0640E0001E76F020EE86FEE
:105A3800EA0EE96FFF0EEA6F010EEB6FE1EC3CF046
:105A48000009D8A42AEF2DF02CEF2DF0E6EF2CF06A
:105A580004007BEC45F00101A8510001605D0101E3
:105A6800A46FA951000161590101A56FAA51000154
:105A780062590101A66FAB51000163590101A76F7B
:105A8800A751A6110BE1F50EA45D010EA559D8A0EA
:105A980050EF2DF052EF2DF02CEF2DF07BEC45F070
:105AA80060C0A8F161C0A9F162C0AAF163C0ABF1FE
:105AB80010EC38F02CEF2DF00DEF00F0C8C0B5F069
:105AC800C9C0B6F08BEC31F00001D26FD251D8A426
:105AD80070EF2DF072EF2DF07CEF2EF0600023F3C5
